{
  "_format": "hh-sol-artifact-1",
  "contractName": "TickerUSDFeedRegistry",
  "sourceName": "contracts/TickerUSDFeedRegistry.sol",
  "abi": [
    {
      "inputs": [],
      "stateMutability": "nonpayable",
      "type": "constructor"
    },
    {
      "anonymous": false,
      "inputs": [
        {
          "indexed": false,
          "internalType": "string",
          "name": "ticker",
          "type": "string"
        },
        {
          "indexed": false,
          "internalType": "address",
          "name": "feedAddress",
          "type": "address"
        }
      ],
      "name": "TickerFeedUpdated",
      "type": "event"
    },
    {
      "inputs": [
        {
          "internalType": "string",
          "name": "ticker",
          "type": "string"
        }
      ],
      "name": "getTickerFeed",
      "outputs": [
        {
          "internalType": "address",
          "name": "feedAddress",
          "type": "address"
        }
      ],
      "stateMutability": "view",
      "type": "function"
    },
    {
      "inputs": [
        {
          "internalType": "string",
          "name": "ticker",
          "type": "string"
        },
        {
          "internalType": "address",
          "name": "feedAddress",
          "type": "address"
        }
      ],
      "name": "setTickerFeed",
      "outputs": [],
      "stateMutability": "nonpayable",
      "type": "function"
    }
  ],
  "bytecode": "0x608060405234801561001057600080fd5b50600080546001600160a01b0319163317905561031d806100326000396000f3fe608060405234801561001057600080fd5b50600436106100365760003560e01c8063c2c912111461003b578063f5a238391461006a575b600080fd5b61004e6100493660046101f1565b61007f565b6040516001600160a01b03909116815260200160405180910390f35b61007d610078366004610233565b6100b4565b005b600060018383604051610093929190610296565b908152604051908190036020019020546001600160a01b0316905092915050565b6000546001600160a01b031633146101275760405162461bcd60e51b815260206004820152602c60248201527f5469636b65725553444665656452656769737472793a204f6e6c79206f776e6560448201526b1c881a5cc8185b1b1bddd95960a21b606482015260840160405180910390fd5b806001848460405161013a929190610296565b90815260405190819003602001812080546001600160a01b03939093166001600160a01b0319909316929092179091557f043e61692772a47617bc3a60d8fced44bf69adde009013c2a42a0412fd03c8c99061019b908590859085906102a6565b60405180910390a1505050565b60008083601f8401126101ba57600080fd5b50813567ffffffffffffffff8111156101d257600080fd5b6020830191508360208285010111156101ea57600080fd5b9250929050565b6000806020838503121561020457600080fd5b823567ffffffffffffffff81111561021b57600080fd5b610227858286016101a8565b90969095509350505050565b60008060006040848603121561024857600080fd5b833567ffffffffffffffff81111561025f57600080fd5b61026b868287016101a8565b90945092505060208401356001600160a01b038116811461028b57600080fd5b809150509250925092565b8183823760009101908152919050565b6040815282604082015282846060830137600060608483018101919091526001600160a01b03929092166020820152601f909201601f19169091010191905056fea26469706673582212206c15380f8533fa94547caa94067b1d4a9faf34f33168ae6991ee367dc911f20564736f6c63430008130033",
  "linkReferences": {},
  "deployedLinkReferences": {}
}